{
  "contractName": "ERC20MYN",
  "abi": [
    {
      "inputs": [
        {
          "internalType": "uint256",
          "name": "total",
          "type": "uint256"
        }
      ],
      "stateMutability": "nonpayable",
      "type": "constructor"
    },
    {
      "anonymous": false,
      "inputs": [
        {
          "indexed": true,
          "internalType": "address",
          "name": "tokenOwner",
          "type": "address"
        },
        {
          "indexed": true,
          "internalType": "address",
          "name": "spender",
          "type": "address"
        },
        {
          "indexed": false,
          "internalType": "uint256",
          "name": "tokens",
          "type": "uint256"
        }
      ],
      "name": "Approval",
      "type": "event"
    },
    {
      "anonymous": false,
      "inputs": [
        {
          "indexed": true,
          "internalType": "address",
          "name": "from",
          "type": "address"
        },
        {
          "indexed": true,
          "internalType": "address",
          "name": "to",
          "type": "address"
        },
        {
          "indexed": false,
          "internalType": "uint256",
          "name": "tokens",
          "type": "uint256"
        }
      ],
      "name": "Transfer",
      "type": "event"
    },
    {
      "inputs": [],
      "name": "decimals",
      "outputs": [
        {
          "internalType": "uint8",
          "name": "",
          "type": "uint8"
        }
      ],
      "stateMutability": "view",
      "type": "function",
      "constant": true
    },
    {
      "inputs": [],
      "name": "name",
      "outputs": [
        {
          "internalType": "string",
          "name": "",
          "type": "string"
        }
      ],
      "stateMutability": "view",
      "type": "function",
      "constant": true
    },
    {
      "inputs": [],
      "name": "symbol",
      "outputs": [
        {
          "internalType": "string",
          "name": "",
          "type": "string"
        }
      ],
      "stateMutability": "view",
      "type": "function",
      "constant": true
    },
    {
      "inputs": [],
      "name": "totalSupply",
      "outputs": [
        {
          "internalType": "uint256",
          "name": "",
          "type": "uint256"
        }
      ],
      "stateMutability": "view",
      "type": "function",
      "constant": true
    },
    {
      "inputs": [
        {
          "internalType": "address",
          "name": "tokenOwner",
          "type": "address"
        }
      ],
      "name": "balanceOf",
      "outputs": [
        {
          "internalType": "uint256",
          "name": "",
          "type": "uint256"
        }
      ],
      "stateMutability": "view",
      "type": "function",
      "constant": true
    },
    {
      "inputs": [
        {
          "internalType": "address",
          "name": "receiver",
          "type": "address"
        },
        {
          "internalType": "uint256",
          "name": "numTokens",
          "type": "uint256"
        }
      ],
      "name": "transfer",
      "outputs": [
        {
          "internalType": "bool",
          "name": "",
          "type": "bool"
        }
      ],
      "stateMutability": "payable",
      "type": "function",
      "payable": true
    },
    {
      "inputs": [
        {
          "internalType": "address",
          "name": "owner",
          "type": "address"
        },
        {
          "internalType": "address",
          "name": "spender",
          "type": "address"
        },
        {
          "internalType": "uint256",
          "name": "numTokens",
          "type": "uint256"
        }
      ],
      "name": "approve",
      "outputs": [
        {
          "internalType": "bool",
          "name": "",
          "type": "bool"
        }
      ],
      "stateMutability": "nonpayable",
      "type": "function"
    },
    {
      "inputs": [
        {
          "internalType": "address",
          "name": "owner",
          "type": "address"
        },
        {
          "internalType": "address",
          "name": "spender",
          "type": "address"
        }
      ],
      "name": "allowance",
      "outputs": [
        {
          "internalType": "uint256",
          "name": "",
          "type": "uint256"
        }
      ],
      "stateMutability": "view",
      "type": "function",
      "constant": true
    },
    {
      "inputs": [
        {
          "internalType": "address",
          "name": "user",
          "type": "address"
        },
        {
          "internalType": "address",
          "name": "company",
          "type": "address"
        },
        {
          "internalType": "uint256",
          "name": "numTokens",
          "type": "uint256"
        }
      ],
      "name": "transferFrom",
      "outputs": [
        {
          "internalType": "bool",
          "name": "",
          "type": "bool"
        }
      ],
      "stateMutability": "payable",
      "type": "function",
      "payable": true
    },
    {
      "inputs": [],
      "name": "close",
      "outputs": [],
      "stateMutability": "nonpayable",
      "type": "function"
    }
  ],
  "bytecode": "0x608060405234801561001057600080fd5b506040516110a73803806110a783398181016040528101906100329190610100565b80600381905550600354600160003373ffffffffffffffffffffffffffffffffffffffff1673ffffffffffffffffffffffffffffffffffffffff16815260200190815260200160002081905550336000806101000a81548173ffffffffffffffffffffffffffffffffffffffff021916908373ffffffffffffffffffffffffffffffffffffffff1602179055505061012d565b600080fd5b6000819050919050565b6100dd816100ca565b81146100e857600080fd5b50565b6000815190506100fa816100d4565b92915050565b600060208284031215610116576101156100c5565b5b6000610124848285016100eb565b91505092915050565b610f6b8061013c6000396000f3fe6080604052600436106100915760003560e01c806370a082311161005957806370a082311461015e57806395d89b411461019b578063a9059cbb146101c6578063dd62ed3e146101f6578063e1f21c671461023357610091565b806306fdde031461009657806318160ddd146100c157806323b872dd146100ec578063313ce5671461011c57806343d726d614610147575b600080fd5b3480156100a257600080fd5b506100ab610270565b6040516100b89190610bfb565b60405180910390f35b3480156100cd57600080fd5b506100d66102a9565b6040516100e39190610c36565b60405180910390f35b61010660048036038101906101019190610ce0565b6102b3565b6040516101139190610d4e565b60405180910390f35b34801561012857600080fd5b50610131610633565b60405161013e9190610d85565b60405180910390f35b34801561015357600080fd5b5061015c610638565b005b34801561016a57600080fd5b5061018560048036038101906101809190610da0565b6106a9565b6040516101929190610c36565b60405180910390f35b3480156101a757600080fd5b506101b06106f2565b6040516101bd9190610bfb565b60405180910390f35b6101e060048036038101906101db9190610dcd565b61072b565b6040516101ed9190610d4e565b60405180910390f35b34801561020257600080fd5b5061021d60048036038101906102189190610e0d565b610995565b60405161022a9190610c36565b60405180910390f35b34801561023f57600080fd5b5061025a60048036038101906102559190610ce0565b610a1c565b6040516102679190610d4e565b60405180910390f35b6040518060400160405280601281526020017f4c696d6974656445646974696f6e436f696e000000000000000000000000000081525081565b6000600354905090565b6000600160008573ffffffffffffffffffffffffffffffffffffffff1673ffffffffffffffffffffffffffffffffffffffff1681526020019081526020016000205482111561030157600080fd5b600260008573ffffffffffffffffffffffffffffffffffffffff1673ffffffffffffffffffffffffffffffffffffffff16815260200190815260200160002060003373ffffffffffffffffffffffffffffffffffffffff1673ffffffffffffffffffffffffffffffffffffffff1681526020019081526020016000205482111561038a57600080fd5b6103dc82600160008773ffffffffffffffffffffffffffffffffffffffff1673ffffffffffffffffffffffffffffffffffffffff16815260200190815260200160002054610b0f90919063ffffffff16565b600160008673ffffffffffffffffffffffffffffffffffffffff1673ffffffffffffffffffffffffffffffffffffffff168152602001908152602001600020819055506104ae82600260008773ffffffffffffffffffffffffffffffffffffffff1673ffffffffffffffffffffffffffffffffffffffff16815260200190815260200160002060003373ffffffffffffffffffffffffffffffffffffffff1673ffffffffffffffffffffffffffffffffffffffff16815260200190815260200160002054610b0f90919063ffffffff16565b600260008673ffffffffffffffffffffffffffffffffffffffff1673ffffffffffffffffffffffffffffffffffffffff16815260200190815260200160002060003373ffffffffffffffffffffffffffffffffffffffff1673ffffffffffffffffffffffffffffffffffffffff1681526020019081526020016000208190555061058082600160008673ffffffffffffffffffffffffffffffffffffffff1673ffffffffffffffffffffffffffffffffffffffff16815260200190815260200160002054610b3690919063ffffffff16565b600160008573ffffffffffffffffffffffffffffffffffffffff1673ffffffffffffffffffffffffffffffffffffffff168152602001908152602001600020819055508273ffffffffffffffffffffffffffffffffffffffff168473ffffffffffffffffffffffffffffffffffffffff167fddf252ad1be2c89b69c2b068fc378daa952ba7f163c4a11628f55a4df523b3ef846040516106209190610c36565b60405180910390a3600190509392505050565b600081565b60008054906101000a900473ffffffffffffffffffffffffffffffffffffffff1673ffffffffffffffffffffffffffffffffffffffff163373ffffffffffffffffffffffffffffffffffffffff161461069057600080fd5b3373ffffffffffffffffffffffffffffffffffffffff16ff5b6000600160008373ffffffffffffffffffffffffffffffffffffffff1673ffffffffffffffffffffffffffffffffffffffff168152602001908152602001600020549050919050565b6040518060400160405280600381526020017f4c4543000000000000000000000000000000000000000000000000000000000081525081565b6000600160008060009054906101000a900473ffffffffffffffffffffffffffffffffffffffff1673ffffffffffffffffffffffffffffffffffffffff1673ffffffffffffffffffffffffffffffffffffffff1681526020019081526020016000205482111561079a57600080fd5b61080d82600160008060009054906101000a900473ffffffffffffffffffffffffffffffffffffffff1673ffffffffffffffffffffffffffffffffffffffff1673ffffffffffffffffffffffffffffffffffffffff16815260200190815260200160002054610b0f90919063ffffffff16565b600160008060009054906101000a900473ffffffffffffffffffffffffffffffffffffffff1673ffffffffffffffffffffffffffffffffffffffff1673ffffffffffffffffffffffffffffffffffffffff168152602001908152602001600020819055506108c382600160008673ffffffffffffffffffffffffffffffffffffffff1673ffffffffffffffffffffffffffffffffffffffff16815260200190815260200160002054610b3690919063ffffffff16565b600160008573ffffffffffffffffffffffffffffffffffffffff1673ffffffffffffffffffffffffffffffffffffffff168152602001908152602001600020819055508273ffffffffffffffffffffffffffffffffffffffff1660008054906101000a900473ffffffffffffffffffffffffffffffffffffffff1673ffffffffffffffffffffffffffffffffffffffff167fddf252ad1be2c89b69c2b068fc378daa952ba7f163c4a11628f55a4df523b3ef846040516109839190610c36565b60405180910390a36001905092915050565b6000600260008473ffffffffffffffffffffffffffffffffffffffff1673ffffffffffffffffffffffffffffffffffffffff16815260200190815260200160002060008373ffffffffffffffffffffffffffffffffffffffff1673ffffffffffffffffffffffffffffffffffffffff16815260200190815260200160002054905092915050565b600081600260008673ffffffffffffffffffffffffffffffffffffffff1673ffffffffffffffffffffffffffffffffffffffff16815260200190815260200160002060008573ffffffffffffffffffffffffffffffffffffffff1673ffffffffffffffffffffffffffffffffffffffff168152602001908152602001600020819055508273ffffffffffffffffffffffffffffffffffffffff168473ffffffffffffffffffffffffffffffffffffffff167f8c5be1e5ebec7d5bd14f71427d1e84f3dd0314c0f7b2291e5b200ac8c7c3b92584604051610afc9190610c36565b60405180910390a3600190509392505050565b600082821115610b2257610b21610e4d565b5b8183610b2e9190610eab565b905092915050565b6000808284610b459190610edf565b905083811015610b5857610b57610e4d565b5b8091505092915050565b600081519050919050565b600082825260208201905092915050565b60005b83811015610b9c578082015181840152602081019050610b81565b83811115610bab576000848401525b50505050565b6000601f19601f8301169050919050565b6000610bcd82610b62565b610bd78185610b6d565b9350610be7818560208601610b7e565b610bf081610bb1565b840191505092915050565b60006020820190508181036000830152610c158184610bc2565b905092915050565b6000819050919050565b610c3081610c1d565b82525050565b6000602082019050610c4b6000830184610c27565b92915050565b600080fd5b600073ffffffffffffffffffffffffffffffffffffffff82169050919050565b6000610c8182610c56565b9050919050565b610c9181610c76565b8114610c9c57600080fd5b50565b600081359050610cae81610c88565b92915050565b610cbd81610c1d565b8114610cc857600080fd5b50565b600081359050610cda81610cb4565b92915050565b600080600060608486031215610cf957610cf8610c51565b5b6000610d0786828701610c9f565b9350506020610d1886828701610c9f565b9250506040610d2986828701610ccb565b9150509250925092565b60008115159050919050565b610d4881610d33565b82525050565b6000602082019050610d636000830184610d3f565b92915050565b600060ff82169050919050565b610d7f81610d69565b82525050565b6000602082019050610d9a6000830184610d76565b92915050565b600060208284031215610db657610db5610c51565b5b6000610dc484828501610c9f565b91505092915050565b60008060408385031215610de457610de3610c51565b5b6000610df285828601610c9f565b9250506020610e0385828601610ccb565b9150509250929050565b60008060408385031215610e2457610e23610c51565b5b6000610e3285828601610c9f565b9250506020610e4385828601610c9f565b9150509250929050565b7f4e487b7100000000000000000000000000000000000000000000000000000000600052600160045260246000fd5b7f4e487b7100000000000000000000000000000000000000000000000000000000600052601160045260246000fd5b6000610eb682610c1d565b9150610ec183610c1d565b925082821015610ed457610ed3610e7c565b5b828203905092915050565b6000610eea82610c1d565b9150610ef583610c1d565b9250827fffffffffffffffffffffffffffffffffffffffffffffffffffffffffffffffff03821115610f2a57610f29610e7c565b5b82820190509291505056fea26469706673582212204f7fc2b4d8d9b9ecdd51151c89c6afa76a17d4576ddec97e1c4656a1be19fd0e64736f6c634300080b0033",
  "immutableReferences": {},
  "source": "//SPDX-License-Identifier: UNLICENSED\n\npragma solidity ^0.8.0;\n\ncontract ERC20MYN {\n\n    //naming constants\n    string public constant name = \"LimitedEditionCoin\";\n    string public constant symbol = \"LEC\";\n    uint8 public constant decimals = 0;  \n   \n    address ERCowner; //#1\n    \n\n    event Approval(address indexed tokenOwner, address indexed spender, uint tokens);\n    event Transfer(address indexed from, address indexed to, uint tokens);\n\n\n    mapping(address => uint256) balances;\n\n    mapping(address => mapping (address => uint256)) allowed;\n    \n    uint256 totalSupply_;\n\n    using SafeMath for uint256;\n\n\n   constructor(uint256 total) public {  \n\t    totalSupply_ = total;\n\t    balances[msg.sender] = totalSupply_;\n\t    ERCowner = msg.sender; //#2\n    }  \n\n    function totalSupply() external view returns (uint256) {\n\t    return totalSupply_;\n    }\n    \n    function balanceOf(address tokenOwner) external view returns (uint) {\n        return balances[tokenOwner];\n    }\n\n    function transfer(address receiver, uint numTokens) payable external returns (bool) {\n        require(numTokens <= balances[ERCowner]);\n        balances[ERCowner] = balances[ERCowner].sub(numTokens);\n        balances[receiver] = balances[receiver].add(numTokens);\n        emit Transfer(ERCowner, receiver, numTokens);\n        return true;\n    }\n\n    function approve(address owner, address spender, uint numTokens) external returns (bool) {\n        allowed[owner][spender] = numTokens;\n        emit Approval(owner, spender, numTokens);\n        return true;\n    }\n\n    function allowance(address owner, address spender) external view returns (uint) {\n        return allowed[owner][spender];\n    }\n\n    function transferFrom(address user, address company, uint numTokens) payable external returns (bool) {\n        require(numTokens <= balances[user]);    \n        require(numTokens <= allowed[user][msg.sender]);\n    \n        balances[user] = balances[user].sub(numTokens);\n        allowed[user][msg.sender] = allowed[user][msg.sender].sub(numTokens);\n        balances[company] = balances[company].add(numTokens);\n        emit Transfer(user, company, numTokens);\n        return true;\n    }\n    \n    //#3\n    function close() external { \n        require(msg.sender == ERCowner);\n        selfdestruct(payable(msg.sender)); \n     }\n \n}\n\nlibrary SafeMath { \n    function sub(uint256 a, uint256 b) internal pure returns (uint256) {\n      assert(b <= a);\n      return a - b;\n    }\n    \n    function add(uint256 a, uint256 b) internal pure returns (uint256) {\n      uint256 c = a + b;\n      assert(c >= a);\n      return c;\n    }\n}",
  "sourcePath": "/Users/saimadhadi/Documents/Repos/les-Dapp/les-contract/contracts/ERC20MYN.sol",
  "compiler": {
    "name": "solc",
    "version": "0.8.11+commit.d7f03943.Emscripten.clang"
  },
  "schemaVersion": "3.4.5",
  "updatedAt": "2022-05-08T23:37:38.631Z",
  "networkType": "ethereum",
  "devdoc": {
    "kind": "dev",
    "methods": {},
    "version": 1
  },
  "userdoc": {
    "kind": "user",
    "methods": {},
    "version": 1
  }
}