{
  "contractName": "LimitedEditionStore",
  "abi": [
    {
      "inputs": [],
      "stateMutability": "nonpayable",
      "type": "constructor"
    },
    {
      "inputs": [
        {
          "internalType": "bytes32",
          "name": "companyName",
          "type": "bytes32"
        },
        {
          "internalType": "address payable",
          "name": "companyAddress",
          "type": "address"
        }
      ],
      "name": "registerCompany",
      "outputs": [],
      "stateMutability": "nonpayable",
      "type": "function"
    },
    {
      "inputs": [
        {
          "internalType": "address payable",
          "name": "companyAddress",
          "type": "address"
        }
      ],
      "name": "unRegisterCompany",
      "outputs": [],
      "stateMutability": "nonpayable",
      "type": "function"
    },
    {
      "inputs": [
        {
          "internalType": "bytes32",
          "name": "productName",
          "type": "bytes32"
        },
        {
          "internalType": "uint256",
          "name": "noOfUnitsManufactured",
          "type": "uint256"
        },
        {
          "internalType": "uint256",
          "name": "price",
          "type": "uint256"
        }
      ],
      "name": "addProduct",
      "outputs": [],
      "stateMutability": "nonpayable",
      "type": "function"
    },
    {
      "inputs": [
        {
          "internalType": "uint256",
          "name": "productId1",
          "type": "uint256"
        }
      ],
      "name": "buyProduct",
      "outputs": [],
      "stateMutability": "payable",
      "type": "function",
      "payable": true
    },
    {
      "inputs": [
        {
          "internalType": "uint256",
          "name": "productId2",
          "type": "uint256"
        }
      ],
      "name": "getOwners",
      "outputs": [
        {
          "internalType": "address[]",
          "name": "",
          "type": "address[]"
        }
      ],
      "stateMutability": "view",
      "type": "function",
      "constant": true
    },
    {
      "inputs": [],
      "name": "getProducts",
      "outputs": [
        {
          "components": [
            {
              "internalType": "uint256",
              "name": "productId",
              "type": "uint256"
            },
            {
              "internalType": "bytes32",
              "name": "productName",
              "type": "bytes32"
            },
            {
              "internalType": "uint256",
              "name": "noOfUnitsManufactured",
              "type": "uint256"
            },
            {
              "internalType": "uint256",
              "name": "availableUnits",
              "type": "uint256"
            },
            {
              "internalType": "uint256",
              "name": "price",
              "type": "uint256"
            },
            {
              "internalType": "uint256",
              "name": "companyId",
              "type": "uint256"
            }
          ],
          "internalType": "struct LimitedEditionStore.Product[]",
          "name": "",
          "type": "tuple[]"
        }
      ],
      "stateMutability": "view",
      "type": "function",
      "constant": true
    }
  ],
  "bytecode": "0x60806040526000600155600060025534801561001a57600080fd5b50336000806101000a81548173ffffffffffffffffffffffffffffffffffffffff021916908373ffffffffffffffffffffffffffffffffffffffff160217905550610edb8061006a6000396000f3fe6080604052600436106100555760003560e01c806343ac21eb1461005a57806352656a38146100835780638642269e146100ac578063a9342db9146100c8578063c29b2f20146100f1578063ee4525d51461011c575b600080fd5b34801561006657600080fd5b50610081600480360381019061007c91906109fb565b610159565b005b34801561008f57600080fd5b506100aa60048036038101906100a59190610a71565b61039c565b005b6100c660048036038101906100c19190610ac4565b6104f3565b005b3480156100d457600080fd5b506100ef60048036038101906100ea9190610af1565b6106cc565b005b3480156100fd57600080fd5b506101066107e3565b6040516101139190610c66565b60405180910390f35b34801561012857600080fd5b50610143600480360381019061013e9190610ac4565b61087e565b6040516101509190610d58565b60405180910390f35b60008054906101000a900473ffffffffffffffffffffffffffffffffffffffff1673ffffffffffffffffffffffffffffffffffffffff163373ffffffffffffffffffffffffffffffffffffffff16146101b157600080fd5b6101b961091f565b60025481600001818152505082816020018181525050600181604001901515908115158152505081816060019073ffffffffffffffffffffffffffffffffffffffff16908173ffffffffffffffffffffffffffffffffffffffff168152505080600560008473ffffffffffffffffffffffffffffffffffffffff1673ffffffffffffffffffffffffffffffffffffffff168152602001908152602001600020600082015181600001556020820151816001015560408201518160020160006101000a81548160ff02191690831515021790555060608201518160020160016101000a81548173ffffffffffffffffffffffffffffffffffffffff021916908373ffffffffffffffffffffffffffffffffffffffff1602179055509050506004819080600181540180825580915050600190039060005260206000209060030201600090919091909150600082015181600001556020820151816001015560408201518160020160006101000a81548160ff02191690831515021790555060608201518160020160016101000a81548173ffffffffffffffffffffffffffffffffffffffff021916908373ffffffffffffffffffffffffffffffffffffffff16021790555050506002600081548092919061039290610da9565b9190505550505050565b60011515600560003373ffffffffffffffffffffffffffffffffffffffff1673ffffffffffffffffffffffffffffffffffffffff16815260200190815260200160002060020160009054906101000a900460ff161515146103fc57600080fd5b60036040518060c001604052806001548152602001858152602001848152602001848152602001838152602001600560003373ffffffffffffffffffffffffffffffffffffffff1673ffffffffffffffffffffffffffffffffffffffff168152602001908152602001600020600001548152509080600181540180825580915050600190039060005260206000209060060201600090919091909150600082015181600001556020820151816001015560408201518160020155606082015181600301556080820151816004015560a082015181600501555050600160008154809291906104e990610da9565b9190505550505050565b670de0b6b3a7640000600382815481106105105761050f610df2565b5b90600052602060002090600602016004015461052c9190610e21565b341461053757600080fd5b60006003828154811061054d5761054c610df2565b5b9060005260206000209060060201600301541161056957600080fd5b6003818154811061057d5761057c610df2565b5b9060005260206000209060060201600301600081548092919061059f90610e7b565b919050555060066000828152602001908152602001600020339080600181540180825580915050600190039060005260206000200160009091909190916101000a81548173ffffffffffffffffffffffffffffffffffffffff021916908373ffffffffffffffffffffffffffffffffffffffff16021790555060046003828154811061062e5761062d610df2565b5b9060005260206000209060060201600501548154811061065157610650610df2565b5b906000526020600020906003020160020160019054906101000a900473ffffffffffffffffffffffffffffffffffffffff1673ffffffffffffffffffffffffffffffffffffffff166108fc349081150290604051600060405180830381858888f193505050501580156106c8573d6000803e3d6000fd5b5050565b60008054906101000a900473ffffffffffffffffffffffffffffffffffffffff1673ffffffffffffffffffffffffffffffffffffffff163373ffffffffffffffffffffffffffffffffffffffff161461072457600080fd5b60001515600560008373ffffffffffffffffffffffffffffffffffffffff1673ffffffffffffffffffffffffffffffffffffffff16815260200190815260200160002060020160009054906101000a900460ff161515141561078557600080fd5b6000600560008373ffffffffffffffffffffffffffffffffffffffff1673ffffffffffffffffffffffffffffffffffffffff16815260200190815260200160002060020160006101000a81548160ff02191690831515021790555050565b60606003805480602002602001604051908101604052809291908181526020016000905b8282101561087557838290600052602060002090600602016040518060c0016040529081600082015481526020016001820154815260200160028201548152602001600382015481526020016004820154815260200160058201548152505081526020019060010190610807565b50505050905090565b60606006600083815260200190815260200160002080548060200260200160405190810160405280929190818152602001828054801561091357602002820191906000526020600020905b8160009054906101000a900473ffffffffffffffffffffffffffffffffffffffff1673ffffffffffffffffffffffffffffffffffffffff16815260200190600101908083116108c9575b50505050509050919050565b60405180608001604052806000815260200160008019168152602001600015158152602001600073ffffffffffffffffffffffffffffffffffffffff1681525090565b600080fd5b6000819050919050565b61097a81610967565b811461098557600080fd5b50565b60008135905061099781610971565b92915050565b600073ffffffffffffffffffffffffffffffffffffffff82169050919050565b60006109c88261099d565b9050919050565b6109d8816109bd565b81146109e357600080fd5b50565b6000813590506109f5816109cf565b92915050565b60008060408385031215610a1257610a11610962565b5b6000610a2085828601610988565b9250506020610a31858286016109e6565b9150509250929050565b6000819050919050565b610a4e81610a3b565b8114610a5957600080fd5b50565b600081359050610a6b81610a45565b92915050565b600080600060608486031215610a8a57610a89610962565b5b6000610a9886828701610988565b9350506020610aa986828701610a5c565b9250506040610aba86828701610a5c565b9150509250925092565b600060208284031215610ada57610ad9610962565b5b6000610ae884828501610a5c565b91505092915050565b600060208284031215610b0757610b06610962565b5b6000610b15848285016109e6565b91505092915050565b600081519050919050565b600082825260208201905092915050565b6000819050602082019050919050565b610b5381610a3b565b82525050565b610b6281610967565b82525050565b60c082016000820151610b7e6000850182610b4a565b506020820151610b916020850182610b59565b506040820151610ba46040850182610b4a565b506060820151610bb76060850182610b4a565b506080820151610bca6080850182610b4a565b5060a0820151610bdd60a0850182610b4a565b50505050565b6000610bef8383610b68565b60c08301905092915050565b6000602082019050919050565b6000610c1382610b1e565b610c1d8185610b29565b9350610c2883610b3a565b8060005b83811015610c59578151610c408882610be3565b9750610c4b83610bfb565b925050600181019050610c2c565b5085935050505092915050565b60006020820190508181036000830152610c808184610c08565b905092915050565b600081519050919050565b600082825260208201905092915050565b6000819050602082019050919050565b6000610cbf8261099d565b9050919050565b610ccf81610cb4565b82525050565b6000610ce18383610cc6565b60208301905092915050565b6000602082019050919050565b6000610d0582610c88565b610d0f8185610c93565b9350610d1a83610ca4565b8060005b83811015610d4b578151610d328882610cd5565b9750610d3d83610ced565b925050600181019050610d1e565b5085935050505092915050565b60006020820190508181036000830152610d728184610cfa565b905092915050565b7f4e487b7100000000000000000000000000000000000000000000000000000000600052601160045260246000fd5b6000610db482610a3b565b91507fffffffffffffffffffffffffffffffffffffffffffffffffffffffffffffffff821415610de757610de6610d7a565b5b600182019050919050565b7f4e487b7100000000000000000000000000000000000000000000000000000000600052603260045260246000fd5b6000610e2c82610a3b565b9150610e3783610a3b565b9250817fffffffffffffffffffffffffffffffffffffffffffffffffffffffffffffffff0483118215151615610e7057610e6f610d7a565b5b828202905092915050565b6000610e8682610a3b565b91506000821415610e9a57610e99610d7a565b5b60018203905091905056fea264697066735822122089aec13e9c500018f24262f39a55999593a8e6ee5616d40c510cf60618dd56ff64736f6c634300080b0033",
  "immutableReferences": {},
  "source": "//SPDX-License-Identifier: UNLICENSED\n\npragma solidity ^0.8.0;\n\ncontract LimitedEditionStore {\n    \n    //to store the address of the admin\n    address admin;\n\n    //product struct to store the details of products\n    struct Product {\n        uint productId;\n        bytes32 productName;\n        uint noOfUnitsManufactured;\n        uint availableUnits;\n        uint price;\n        uint companyId;\n    }\n\n    //company struct to store the details of company\n    struct Company {\n        uint companyId;\n        bytes32 companyName;\n        bool isActive;\n        address payable companyAddress;\n    }\n\n    uint productId = 0;\n    uint companyId = 0;\n\n    //Array of Product structure to store all products details\n    Product[] products;\n\n    //Array of Company structure to store all companies details\n    Company[] companies;\n    \n    //To get details of company by address and  unregister company by address\n    mapping(address => Company) addressToCompanyMap;\n    \n    //mapping product to owners using a map from productID to address[] array\n    mapping(uint => address[]) owners;\n\n    constructor() {\n        admin = msg.sender;\n    }\n\n    modifier onlyAdmin() {\n        require(msg.sender == admin);\n        _;\n    }\n\n    modifier onlyCompanies() {\n        require(addressToCompanyMap[msg.sender].isActive== true);\n        _;\n    }\n\n    function registerCompany(bytes32 companyName, address payable companyAddress) public onlyAdmin {\n        Company memory com;\n        com.companyId = companyId;\n        com.companyName = companyName;\n        com.isActive = true;\n        com.companyAddress = companyAddress;\n        addressToCompanyMap[companyAddress] = com;\n        companies.push(com);\n        companyId++;\n    }\n\n    function unRegisterCompany(address payable companyAddress) public onlyAdmin {\n        require(addressToCompanyMap[companyAddress].isActive!=false); \n        addressToCompanyMap[companyAddress].isActive = false;\n    }\n\n    function addProduct(bytes32 productName, uint noOfUnitsManufactured, uint price) public onlyCompanies {\n        products.push(Product(productId, productName, noOfUnitsManufactured, noOfUnitsManufactured, price, addressToCompanyMap[msg.sender].companyId));\n        productId++;\n    }\n\n    function buyProduct(uint productId1) public payable {\n        require(msg.value == (products[productId1].price * 10 ** 18) );\n        require(products[productId1].availableUnits > 0);\n        products[productId1].availableUnits--;\n        // add product to user\n        owners[productId1].push(msg.sender);\n        // transfer money to company\n        companies[products[productId1].companyId].companyAddress.transfer(msg.value);\n    }\n\n    function getOwners(uint productId2) view public returns(address[] memory) {\n        return owners[productId2];\n    }\n    \n    function getProducts() view public returns(Product[] memory) {\n        return products;    \n    }\n\n}",
  "sourcePath": "/Users/saimadhadi/Documents/Repos/les-Dapp/les-contract/contracts/LimitedEditionStore.sol",
  "compiler": {
    "name": "solc",
    "version": "0.8.11+commit.d7f03943.Emscripten.clang"
  },
  "schemaVersion": "3.4.5",
  "updatedAt": "2022-04-18T01:59:30.847Z",
  "networkType": "ethereum",
  "devdoc": {
    "kind": "dev",
    "methods": {},
    "version": 1
  },
  "userdoc": {
    "kind": "user",
    "methods": {},
    "version": 1
  }
}