{
  "contractName": "LimitedEditionStore",
  "abi": [
    {
      "inputs": [
        {
          "internalType": "address",
          "name": "ERC20_address",
          "type": "address"
        }
      ],
      "stateMutability": "nonpayable",
      "type": "constructor"
    },
    {
      "inputs": [
        {
          "internalType": "address payable",
          "name": "address1",
          "type": "address"
        }
      ],
      "name": "sendTokens",
      "outputs": [],
      "stateMutability": "payable",
      "type": "function",
      "payable": true
    },
    {
      "inputs": [
        {
          "internalType": "address",
          "name": "user",
          "type": "address"
        }
      ],
      "name": "getBalance",
      "outputs": [
        {
          "internalType": "uint256",
          "name": "",
          "type": "uint256"
        }
      ],
      "stateMutability": "view",
      "type": "function",
      "constant": true
    },
    {
      "inputs": [
        {
          "internalType": "bytes32",
          "name": "companyName",
          "type": "bytes32"
        },
        {
          "internalType": "address payable",
          "name": "companyAddress",
          "type": "address"
        }
      ],
      "name": "registerCompany",
      "outputs": [],
      "stateMutability": "nonpayable",
      "type": "function"
    },
    {
      "inputs": [
        {
          "internalType": "address payable",
          "name": "companyAddress",
          "type": "address"
        }
      ],
      "name": "unRegisterCompany",
      "outputs": [],
      "stateMutability": "nonpayable",
      "type": "function"
    },
    {
      "inputs": [
        {
          "internalType": "bytes32",
          "name": "productName",
          "type": "bytes32"
        },
        {
          "internalType": "uint256",
          "name": "noOfUnitsManufactured",
          "type": "uint256"
        },
        {
          "internalType": "uint256",
          "name": "price",
          "type": "uint256"
        }
      ],
      "name": "addProduct",
      "outputs": [],
      "stateMutability": "nonpayable",
      "type": "function"
    },
    {
      "inputs": [
        {
          "internalType": "uint256",
          "name": "price",
          "type": "uint256"
        }
      ],
      "name": "approve",
      "outputs": [],
      "stateMutability": "nonpayable",
      "type": "function"
    },
    {
      "inputs": [
        {
          "internalType": "uint256",
          "name": "productId1",
          "type": "uint256"
        }
      ],
      "name": "buyProduct",
      "outputs": [],
      "stateMutability": "payable",
      "type": "function",
      "payable": true
    },
    {
      "inputs": [
        {
          "internalType": "uint256",
          "name": "productId2",
          "type": "uint256"
        }
      ],
      "name": "getOwners",
      "outputs": [
        {
          "internalType": "address[]",
          "name": "",
          "type": "address[]"
        }
      ],
      "stateMutability": "view",
      "type": "function",
      "constant": true
    },
    {
      "inputs": [],
      "name": "getProducts",
      "outputs": [
        {
          "components": [
            {
              "internalType": "uint256",
              "name": "productId",
              "type": "uint256"
            },
            {
              "internalType": "bytes32",
              "name": "productName",
              "type": "bytes32"
            },
            {
              "internalType": "uint256",
              "name": "noOfUnitsManufactured",
              "type": "uint256"
            },
            {
              "internalType": "uint256",
              "name": "availableUnits",
              "type": "uint256"
            },
            {
              "internalType": "uint256",
              "name": "price",
              "type": "uint256"
            },
            {
              "internalType": "uint256",
              "name": "companyId",
              "type": "uint256"
            }
          ],
          "internalType": "struct LimitedEditionStore.Product[]",
          "name": "",
          "type": "tuple[]"
        }
      ],
      "stateMutability": "view",
      "type": "function",
      "constant": true
    }
  ],
  "bytecode": "0x6080604052600060035560006004553480156200001b57600080fd5b50604051620016b8380380620016b8833981810160405281019062000041919062000174565b336000806101000a81548173ffffffffffffffffffffffffffffffffffffffff021916908373ffffffffffffffffffffffffffffffffffffffff16021790555030600260006101000a81548173ffffffffffffffffffffffffffffffffffffffff021916908373ffffffffffffffffffffffffffffffffffffffff16021790555080600160006101000a81548173ffffffffffffffffffffffffffffffffffffffff021916908373ffffffffffffffffffffffffffffffffffffffff16021790555050620001a6565b600080fd5b600073ffffffffffffffffffffffffffffffffffffffff82169050919050565b60006200013c826200010f565b9050919050565b6200014e816200012f565b81146200015a57600080fd5b50565b6000815190506200016e8162000143565b92915050565b6000602082840312156200018d576200018c6200010a565b5b60006200019d848285016200015d565b91505092915050565b61150280620001b66000396000f3fe6080604052600436106100865760003560e01c8063a9342db911610059578063a9342db914610115578063b759f9541461013e578063c29b2f2014610167578063ee4525d514610192578063f8b2cb4f146101cf57610086565b806343ac21eb1461008b57806352656a38146100b4578063837197b2146100dd5780638642269e146100f9575b600080fd5b34801561009757600080fd5b506100b260048036038101906100ad9190610df7565b61020c565b005b3480156100c057600080fd5b506100db60048036038101906100d69190610e6d565b6104f1565b005b6100f760048036038101906100f29190610ec0565b610648565b005b610113600480360381019061010e9190610eed565b610745565b005b34801561012157600080fd5b5061013c60048036038101906101379190610ec0565b61095b565b005b34801561014a57600080fd5b5061016560048036038101906101609190610eed565b610a72565b005b34801561017357600080fd5b5061017c610b3a565b6040516101899190611062565b60405180910390f35b34801561019e57600080fd5b506101b960048036038101906101b49190610eed565b610bd5565b6040516101c69190611154565b60405180910390f35b3480156101db57600080fd5b506101f660048036038101906101f191906111a2565b610c76565b60405161020391906111de565b60405180910390f35b60008054906101000a900473ffffffffffffffffffffffffffffffffffffffff1673ffffffffffffffffffffffffffffffffffffffff163373ffffffffffffffffffffffffffffffffffffffff161461026457600080fd5b61026c610d1b565b60045481600001818152505082816020018181525050600181604001901515908115158152505081816060019073ffffffffffffffffffffffffffffffffffffffff16908173ffffffffffffffffffffffffffffffffffffffff168152505080600760008473ffffffffffffffffffffffffffffffffffffffff1673ffffffffffffffffffffffffffffffffffffffff168152602001908152602001600020600082015181600001556020820151816001015560408201518160020160006101000a81548160ff02191690831515021790555060608201518160020160016101000a81548173ffffffffffffffffffffffffffffffffffffffff021916908373ffffffffffffffffffffffffffffffffffffffff1602179055509050506006819080600181540180825580915050600190039060005260206000209060030201600090919091909150600082015181600001556020820151816001015560408201518160020160006101000a81548160ff02191690831515021790555060608201518160020160016101000a81548173ffffffffffffffffffffffffffffffffffffffff021916908373ffffffffffffffffffffffffffffffffffffffff1602179055505050600160009054906101000a900473ffffffffffffffffffffffffffffffffffffffff1673ffffffffffffffffffffffffffffffffffffffff1663a9059cbb8360646040518363ffffffff1660e01b8152600401610490929190611293565b6020604051808303816000875af11580156104af573d6000803e3d6000fd5b505050506040513d601f19601f820116820180604052508101906104d391906112f4565b50600460008154809291906104e790611350565b9190505550505050565b60011515600760003373ffffffffffffffffffffffffffffffffffffffff1673ffffffffffffffffffffffffffffffffffffffff16815260200190815260200160002060020160009054906101000a900460ff1615151461055157600080fd5b60056040518060c001604052806003548152602001858152602001848152602001848152602001838152602001600760003373ffffffffffffffffffffffffffffffffffffffff1673ffffffffffffffffffffffffffffffffffffffff168152602001908152602001600020600001548152509080600181540180825580915050600190039060005260206000209060060201600090919091909150600082015181600001556020820151816001015560408201518160020155606082015181600301556080820151816004015560a0820151816005015550506003600081548092919061063e90611350565b9190505550505050565b60008054906101000a900473ffffffffffffffffffffffffffffffffffffffff1673ffffffffffffffffffffffffffffffffffffffff163373ffffffffffffffffffffffffffffffffffffffff16146106a057600080fd5b600160009054906101000a900473ffffffffffffffffffffffffffffffffffffffff1673ffffffffffffffffffffffffffffffffffffffff1663a9059cbb8260646040518363ffffffff1660e01b81526004016106fe929190611293565b6020604051808303816000875af115801561071d573d6000803e3d6000fd5b505050506040513d601f19601f8201168201806040525081019061074191906112f4565b5050565b60006005828154811061075b5761075a611399565b5b9060005260206000209060060201600301541161077757600080fd5b6005818154811061078b5761078a611399565b5b906000526020600020906006020160030160008154809291906107ad906113c8565b919050555060086000828152602001908152602001600020339080600181540180825580915050600190039060005260206000200160009091909190916101000a81548173ffffffffffffffffffffffffffffffffffffffff021916908373ffffffffffffffffffffffffffffffffffffffff160217905550600160009054906101000a900473ffffffffffffffffffffffffffffffffffffffff1673ffffffffffffffffffffffffffffffffffffffff166323b872dd3360066005858154811061087b5761087a611399565b5b9060005260206000209060060201600501548154811061089e5761089d611399565b5b906000526020600020906003020160020160019054906101000a900473ffffffffffffffffffffffffffffffffffffffff16600585815481106108e4576108e3611399565b5b9060005260206000209060060201600401546040518463ffffffff1660e01b815260040161091493929190611401565b6020604051808303816000875af1158015610933573d6000803e3d6000fd5b505050506040513d601f19601f8201168201806040525081019061095791906112f4565b5050565b60008054906101000a900473ffffffffffffffffffffffffffffffffffffffff1673ffffffffffffffffffffffffffffffffffffffff163373ffffffffffffffffffffffffffffffffffffffff16146109b357600080fd5b60001515600760008373ffffffffffffffffffffffffffffffffffffffff1673ffffffffffffffffffffffffffffffffffffffff16815260200190815260200160002060020160009054906101000a900460ff1615151415610a1457600080fd5b6000600760008373ffffffffffffffffffffffffffffffffffffffff1673ffffffffffffffffffffffffffffffffffffffff16815260200190815260200160002060020160006101000a81548160ff02191690831515021790555050565b600160009054906101000a900473ffffffffffffffffffffffffffffffffffffffff1673ffffffffffffffffffffffffffffffffffffffff1663e1f21c6733600260009054906101000a900473ffffffffffffffffffffffffffffffffffffffff16846040518463ffffffff1660e01b8152600401610af393929190611438565b6020604051808303816000875af1158015610b12573d6000803e3d6000fd5b505050506040513d601f19601f82011682018060405250810190610b3691906112f4565b5050565b60606005805480602002602001604051908101604052809291908181526020016000905b82821015610bcc57838290600052602060002090600602016040518060c0016040529081600082015481526020016001820154815260200160028201548152602001600382015481526020016004820154815260200160058201548152505081526020019060010190610b5e565b50505050905090565b606060086000838152602001908152602001600020805480602002602001604051908101604052809291908181526020018280548015610c6a57602002820191906000526020600020905b8160009054906101000a900473ffffffffffffffffffffffffffffffffffffffff1673ffffffffffffffffffffffffffffffffffffffff1681526020019060010190808311610c20575b50505050509050919050565b6000600160009054906101000a900473ffffffffffffffffffffffffffffffffffffffff1673ffffffffffffffffffffffffffffffffffffffff166370a08231836040518263ffffffff1660e01b8152600401610cd3919061146f565b602060405180830381865afa158015610cf0573d6000803e3d6000fd5b505050506040513d601f19601f82011682018060405250810190610d14919061149f565b9050919050565b60405180608001604052806000815260200160008019168152602001600015158152602001600073ffffffffffffffffffffffffffffffffffffffff1681525090565b600080fd5b6000819050919050565b610d7681610d63565b8114610d8157600080fd5b50565b600081359050610d9381610d6d565b92915050565b600073ffffffffffffffffffffffffffffffffffffffff82169050919050565b6000610dc482610d99565b9050919050565b610dd481610db9565b8114610ddf57600080fd5b50565b600081359050610df181610dcb565b92915050565b60008060408385031215610e0e57610e0d610d5e565b5b6000610e1c85828601610d84565b9250506020610e2d85828601610de2565b9150509250929050565b6000819050919050565b610e4a81610e37565b8114610e5557600080fd5b50565b600081359050610e6781610e41565b92915050565b600080600060608486031215610e8657610e85610d5e565b5b6000610e9486828701610d84565b9350506020610ea586828701610e58565b9250506040610eb686828701610e58565b9150509250925092565b600060208284031215610ed657610ed5610d5e565b5b6000610ee484828501610de2565b91505092915050565b600060208284031215610f0357610f02610d5e565b5b6000610f1184828501610e58565b91505092915050565b600081519050919050565b600082825260208201905092915050565b6000819050602082019050919050565b610f4f81610e37565b82525050565b610f5e81610d63565b82525050565b60c082016000820151610f7a6000850182610f46565b506020820151610f8d6020850182610f55565b506040820151610fa06040850182610f46565b506060820151610fb36060850182610f46565b506080820151610fc66080850182610f46565b5060a0820151610fd960a0850182610f46565b50505050565b6000610feb8383610f64565b60c08301905092915050565b6000602082019050919050565b600061100f82610f1a565b6110198185610f25565b935061102483610f36565b8060005b8381101561105557815161103c8882610fdf565b975061104783610ff7565b925050600181019050611028565b5085935050505092915050565b6000602082019050818103600083015261107c8184611004565b905092915050565b600081519050919050565b600082825260208201905092915050565b6000819050602082019050919050565b60006110bb82610d99565b9050919050565b6110cb816110b0565b82525050565b60006110dd83836110c2565b60208301905092915050565b6000602082019050919050565b600061110182611084565b61110b818561108f565b9350611116836110a0565b8060005b8381101561114757815161112e88826110d1565b9750611139836110e9565b92505060018101905061111a565b5085935050505092915050565b6000602082019050818103600083015261116e81846110f6565b905092915050565b61117f816110b0565b811461118a57600080fd5b50565b60008135905061119c81611176565b92915050565b6000602082840312156111b8576111b7610d5e565b5b60006111c68482850161118d565b91505092915050565b6111d881610e37565b82525050565b60006020820190506111f360008301846111cf565b92915050565b6000819050919050565b600061121e61121961121484610d99565b6111f9565b610d99565b9050919050565b600061123082611203565b9050919050565b600061124282611225565b9050919050565b61125281611237565b82525050565b6000819050919050565b600061127d61127861127384611258565b6111f9565b610e37565b9050919050565b61128d81611262565b82525050565b60006040820190506112a86000830185611249565b6112b56020830184611284565b9392505050565b60008115159050919050565b6112d1816112bc565b81146112dc57600080fd5b50565b6000815190506112ee816112c8565b92915050565b60006020828403121561130a57611309610d5e565b5b6000611318848285016112df565b91505092915050565b7f4e487b7100000000000000000000000000000000000000000000000000000000600052601160045260246000fd5b600061135b82610e37565b91507fffffffffffffffffffffffffffffffffffffffffffffffffffffffffffffffff82141561138e5761138d611321565b5b600182019050919050565b7f4e487b7100000000000000000000000000000000000000000000000000000000600052603260045260246000fd5b60006113d382610e37565b915060008214156113e7576113e6611321565b5b600182039050919050565b6113fb816110b0565b82525050565b600060608201905061141660008301866113f2565b6114236020830185611249565b61143060408301846111cf565b949350505050565b600060608201905061144d60008301866113f2565b61145a60208301856113f2565b61146760408301846111cf565b949350505050565b600060208201905061148460008301846113f2565b92915050565b60008151905061149981610e41565b92915050565b6000602082840312156114b5576114b4610d5e565b5b60006114c38482850161148a565b9150509291505056fea2646970667358221220fecbf459b0fdb1ac1f4a1d7e5ae5caeeb793e2d2f7c21c02a84d8ba5ef5446c464736f6c634300080b0033",
  "immutableReferences": {},
  "source": "//SPDX-License-Identifier: UNLICENSED\n\npragma solidity ^0.8.0;\n\ninterface IERC20 {\n   \n    function totalSupply() external view returns (uint256);\n\n    function balanceOf(address tokenOwner) external view returns (uint256);\n\n    function transfer(address receiver, uint numTokens) external returns (bool);\n   \n    function approve(address owner, address spender, uint numTokens) external returns (bool);  \n\n    function allowance(address owner, address spender) external view returns (uint256);\n\n    function transferFrom(address user, address company, uint numTokens) external returns (bool);\n\n}\n\ncontract LimitedEditionStore {\n\n    //to store the address of the admin\n    address admin;\n\n    //to store ERC20 contract address\n    address ERC20contract_Address;\n\n    address contract_addr;\n\n    //product struct to store the details of products\n    struct Product {\n        uint productId;\n        bytes32 productName;\n        uint noOfUnitsManufactured;\n        uint availableUnits;\n        uint price;\n        uint companyId;\n    }\n\n    //company struct to store the details of company\n    struct Company {\n        uint companyId;\n        bytes32 companyName;\n        bool isActive;\n        address payable companyAddress;\n    }\n\n    uint productId = 0;\n    uint companyId = 0;\n\n    //Array of Product structure to store all products details\n    Product[] products;\n\n    //Array of Company structure to store all companies details\n    Company[] companies;\n    \n    //To get details of company by address and  unregister company by address\n    mapping(address => Company) addressToCompanyMap;\n    \n    //mapping product to owners using a map from productID to address[] array\n    mapping(uint => address[]) owners;\n\n    constructor(address ERC20_address) {\n        admin = msg.sender;\n        contract_addr = address(this);\n        ERC20contract_Address = ERC20_address;\n    }\n\n    modifier onlyAdmin() {\n        require(msg.sender == admin);\n        _;\n    }\n\n    modifier onlyCompanies() {\n        require(addressToCompanyMap[msg.sender].isActive== true);\n        _;\n    }\n\n    // function setContractAddr(address ERC20_address) public payable {\n    //    ERC20contract_Address = ERC20_address;\n    // }\n\n    function sendTokens(address payable address1) payable public onlyAdmin{\n        IERC20(ERC20contract_Address).transfer(address1, 100);\n    }\n\n    function getBalance(address user) view public returns (uint){\n        return IERC20(ERC20contract_Address).balanceOf(user);\n    }\n\n    function registerCompany(bytes32 companyName, address payable companyAddress) public onlyAdmin {\n        Company memory com;\n        com.companyId = companyId;\n        com.companyName = companyName;\n        com.isActive = true;\n        com.companyAddress = companyAddress;\n        addressToCompanyMap[companyAddress] = com;\n        companies.push(com);\n        IERC20(ERC20contract_Address).transfer(companyAddress, 100);\n        companyId++;\n    }\n\n    function unRegisterCompany(address payable companyAddress) public onlyAdmin {\n        require(addressToCompanyMap[companyAddress].isActive!=false); \n        addressToCompanyMap[companyAddress].isActive = false;\n    }\n\n    function addProduct(bytes32 productName, uint noOfUnitsManufactured, uint price) public onlyCompanies {\n        products.push(Product(productId, productName, noOfUnitsManufactured, noOfUnitsManufactured, price, addressToCompanyMap[msg.sender].companyId));\n        productId++;\n    }\n\n    function approve(uint price) public {\n        IERC20(ERC20contract_Address).approve(msg.sender , contract_addr, price);\n    }\n\n    function buyProduct(uint productId1) public payable {\n        //require(msg.value == products[productId1].price );\n        require(products[productId1].availableUnits > 0);\n        products[productId1].availableUnits--;\n        //add product to user\n        owners[productId1].push(msg.sender);\n        //transfer money to company\n        IERC20(ERC20contract_Address).transferFrom(msg.sender,companies[products[productId1].companyId].companyAddress, products[productId1].price);\n        //companies[products[productId1].companyId].companyAddress.transfer(msg.value);\n    }\n\n    function getOwners(uint productId2) view public returns(address[] memory) {\n        return owners[productId2];\n    }\n    \n    function getProducts() view public returns(Product[] memory) {\n        return products;    \n    }\n\n}",
  "sourcePath": "/Users/saimadhadi/Documents/Repos/les-Dapp/les-contract/contracts/LimitedEditionStore.sol",
  "compiler": {
    "name": "solc",
    "version": "0.8.11+commit.d7f03943.Emscripten.clang"
  },
  "schemaVersion": "3.4.5",
  "updatedAt": "2022-05-08T23:37:38.615Z",
  "networkType": "ethereum",
  "devdoc": {
    "kind": "dev",
    "methods": {},
    "version": 1
  },
  "userdoc": {
    "kind": "user",
    "methods": {},
    "version": 1
  }
}